{
	"contracts/FundMe.sol": {
		"FundMe": {
			"abi": [
				{
					"inputs": [],
					"name": "fund",
					"outputs": [],
					"stateMutability": "payable",
					"type": "function"
				},
				{
					"inputs": [
						{
							"internalType": "uint256",
							"name": "",
							"type": "uint256"
						}
					],
					"name": "funders",
					"outputs": [
						{
							"internalType": "address",
							"name": "",
							"type": "address"
						}
					],
					"stateMutability": "view",
					"type": "function"
				},
				{
					"inputs": [],
					"name": "minimumUsd",
					"outputs": [
						{
							"internalType": "uint256",
							"name": "",
							"type": "uint256"
						}
					],
					"stateMutability": "view",
					"type": "function"
				}
			],
			"devdoc": {
				"kind": "dev",
				"methods": {},
				"version": 1
			},
			"evm": {
				"assembly": "    /* \"contracts/FundMe.sol\":117:609  contract FundMe {... */\n  mstore(0x40, 0x80)\n    /* \"contracts/FundMe.sol\":211:219  5 * 1e18 */\n  0x4563918244f40000\n    /* \"contracts/FundMe.sol\":183:219  uint256 public minimumUsd = 5 * 1e18 */\n  0x00\n  sstore\n    /* \"contracts/FundMe.sol\":117:609  contract FundMe {... */\n  callvalue\n  dup1\n  iszero\n  tag_1\n  jumpi\n  0x00\n  dup1\n  revert\ntag_1:\n  pop\n  dataSize(sub_0)\n  dup1\n  dataOffset(sub_0)\n  0x00\n  codecopy\n  0x00\n  return\nstop\n\nsub_0: assembly {\n        /* \"contracts/FundMe.sol\":117:609  contract FundMe {... */\n      mstore(0x40, 0x80)\n      jumpi(tag_1, lt(calldatasize, 0x04))\n      shr(0xe0, calldataload(0x00))\n      dup1\n      0x098de820\n      eq\n      tag_2\n      jumpi\n      dup1\n      0xb60d4288\n      eq\n      tag_3\n      jumpi\n      dup1\n      0xdc0d3dff\n      eq\n      tag_4\n      jumpi\n    tag_1:\n      0x00\n      dup1\n      revert\n        /* \"contracts/FundMe.sol\":183:219  uint256 public minimumUsd = 5 * 1e18 */\n    tag_2:\n      callvalue\n      dup1\n      iszero\n      tag_5\n      jumpi\n      0x00\n      dup1\n      revert\n    tag_5:\n      pop\n      tag_6\n      tag_7\n      jump\t// in\n    tag_6:\n      mload(0x40)\n      tag_8\n      swap2\n      swap1\n      tag_9\n      jump\t// in\n    tag_8:\n      mload(0x40)\n      dup1\n      swap2\n      sub\n      swap1\n      return\n        /* \"contracts/FundMe.sol\":337:604  function fund() public payable {... */\n    tag_3:\n      tag_10\n      tag_11\n      jump\t// in\n    tag_10:\n      stop\n        /* \"contracts/FundMe.sol\":228:252  address[] public funders */\n    tag_4:\n      callvalue\n      dup1\n      iszero\n      tag_12\n      jumpi\n      0x00\n      dup1\n      revert\n    tag_12:\n      pop\n      tag_13\n      0x04\n      dup1\n      calldatasize\n      sub\n      dup2\n      add\n      swap1\n      tag_14\n      swap2\n      swap1\n      tag_15\n      jump\t// in\n    tag_14:\n      tag_16\n      jump\t// in\n    tag_13:\n      mload(0x40)\n      tag_17\n      swap2\n      swap1\n      tag_18\n      jump\t// in\n    tag_17:\n      mload(0x40)\n      dup1\n      swap2\n      sub\n      swap1\n      return\n        /* \"contracts/FundMe.sol\":183:219  uint256 public minimumUsd = 5 * 1e18 */\n    tag_7:\n      sload(0x00)\n      dup2\n      jump\t// out\n        /* \"contracts/FundMe.sol\":337:604  function fund() public payable {... */\n    tag_11:\n        /* \"contracts/FundMe.sol\":430:440  minimumUsd */\n      sload(0x00)\n        /* \"contracts/FundMe.sol\":397:426  msg.value.getConversionRate() */\n      tag_20\n        /* \"contracts/FundMe.sol\":397:406  msg.value */\n      callvalue\n        /* \"contracts/FundMe.sol\":397:424  msg.value.getConversionRate */\n      tag_21\n        /* \"contracts/FundMe.sol\":397:426  msg.value.getConversionRate() */\n      jump\t// in\n    tag_20:\n        /* \"contracts/FundMe.sol\":397:440  msg.value.getConversionRate() >= minimumUsd */\n      lt\n      iszero\n        /* \"contracts/FundMe.sol\":389:467  require(msg.value.getConversionRate() >= minimumUsd, \"didn't send enough ETH\") */\n      tag_22\n      jumpi\n      mload(0x40)\n      0x08c379a000000000000000000000000000000000000000000000000000000000\n      dup2\n      mstore\n      0x04\n      add\n      tag_23\n      swap1\n      tag_24\n      jump\t// in\n    tag_23:\n      mload(0x40)\n      dup1\n      swap2\n      sub\n      swap1\n      revert\n    tag_22:\n        /* \"contracts/FundMe.sol\":478:485  funders */\n      0x01\n        /* \"contracts/FundMe.sol\":491:501  msg.sender */\n      caller\n        /* \"contracts/FundMe.sol\":478:502  funders.push(msg.sender) */\n      swap1\n      dup1\n      0x01\n      dup2\n      sload\n      add\n      dup1\n      dup3\n      sstore\n      dup1\n      swap2\n      pop\n      pop\n      0x01\n      swap1\n      sub\n      swap1\n      0x00\n      mstore\n      keccak256(0x00, 0x20)\n      add\n      0x00\n      swap1\n      swap2\n      swap1\n      swap2\n      swap1\n      swap2\n      0x0100\n      exp\n      dup2\n      sload\n      dup2\n      0xffffffffffffffffffffffffffffffffffffffff\n      mul\n      not\n      and\n      swap1\n      dup4\n      0xffffffffffffffffffffffffffffffffffffffff\n      and\n      mul\n      or\n      swap1\n      sstore\n      pop\n        /* \"contracts/FundMe.sol\":585:594  msg.value */\n      callvalue\n        /* \"contracts/FundMe.sol\":549:570  addressToAmountFunded */\n      0x02\n        /* \"contracts/FundMe.sol\":549:582  addressToAmountFunded[msg.sender] */\n      0x00\n        /* \"contracts/FundMe.sol\":571:581  msg.sender */\n      caller\n        /* \"contracts/FundMe.sol\":549:582  addressToAmountFunded[msg.sender] */\n      0xffffffffffffffffffffffffffffffffffffffff\n      and\n      0xffffffffffffffffffffffffffffffffffffffff\n      and\n      dup2\n      mstore\n      0x20\n      add\n      swap1\n      dup2\n      mstore\n      0x20\n      add\n      0x00\n      keccak256\n      sload\n        /* \"contracts/FundMe.sol\":549:594  addressToAmountFunded[msg.sender] + msg.value */\n      tag_26\n      swap2\n      swap1\n      tag_27\n      jump\t// in\n    tag_26:\n        /* \"contracts/FundMe.sol\":513:534  addressToAmountFunded */\n      0x02\n        /* \"contracts/FundMe.sol\":513:546  addressToAmountFunded[msg.sender] */\n      0x00\n        /* \"contracts/FundMe.sol\":535:545  msg.sender */\n      caller\n        /* \"contracts/FundMe.sol\":513:546  addressToAmountFunded[msg.sender] */\n      0xffffffffffffffffffffffffffffffffffffffff\n      and\n      0xffffffffffffffffffffffffffffffffffffffff\n      and\n      dup2\n      mstore\n      0x20\n      add\n      swap1\n      dup2\n      mstore\n      0x20\n      add\n      0x00\n      keccak256\n        /* \"contracts/FundMe.sol\":513:594  addressToAmountFunded[msg.sender] = addressToAmountFunded[msg.sender] + msg.value */\n      dup2\n      swap1\n      sstore\n      pop\n        /* \"contracts/FundMe.sol\":337:604  function fund() public payable {... */\n      jump\t// out\n        /* \"contracts/FundMe.sol\":228:252  address[] public funders */\n    tag_16:\n      0x01\n      dup2\n      dup2\n      sload\n      dup2\n      lt\n      tag_28\n      jumpi\n      0x00\n      dup1\n      revert\n    tag_28:\n      swap1\n      0x00\n      mstore\n      keccak256(0x00, 0x20)\n      add\n      0x00\n      swap2\n      pop\n      sload\n      swap1\n      0x0100\n      exp\n      swap1\n      div\n      0xffffffffffffffffffffffffffffffffffffffff\n      and\n      dup2\n      jump\t// out\n        /* \"contracts/PriceConverter.sol\":583:806  function getConversionRate(uint256 ethAmount) internal view returns (uint256) {... */\n    tag_21:\n        /* \"contracts/PriceConverter.sol\":652:659  uint256 */\n      0x00\n        /* \"contracts/PriceConverter.sol\":672:688  uint256 ethPrice */\n      dup1\n        /* \"contracts/PriceConverter.sol\":691:701  getPrice() */\n      tag_31\n        /* \"contracts/PriceConverter.sol\":691:699  getPrice */\n      tag_32\n        /* \"contracts/PriceConverter.sol\":691:701  getPrice() */\n      jump\t// in\n    tag_31:\n        /* \"contracts/PriceConverter.sol\":672:701  uint256 ethPrice = getPrice() */\n      swap1\n      pop\n        /* \"contracts/PriceConverter.sol\":712:734  uint256 ethAmountInUsd */\n      0x00\n        /* \"contracts/PriceConverter.sol\":762:766  1e18 */\n      0x0de0b6b3a7640000\n        /* \"contracts/PriceConverter.sol\":749:758  ethAmount */\n      dup5\n        /* \"contracts/PriceConverter.sol\":738:746  ethPrice */\n      dup4\n        /* \"contracts/PriceConverter.sol\":738:758  ethPrice * ethAmount */\n      tag_33\n      swap2\n      swap1\n      tag_34\n      jump\t// in\n    tag_33:\n        /* \"contracts/PriceConverter.sol\":737:766  (ethPrice * ethAmount) / 1e18 */\n      tag_35\n      swap2\n      swap1\n      tag_36\n      jump\t// in\n    tag_35:\n        /* \"contracts/PriceConverter.sol\":712:766  uint256 ethAmountInUsd = (ethPrice * ethAmount) / 1e18 */\n      swap1\n      pop\n        /* \"contracts/PriceConverter.sol\":784:798  ethAmountInUsd */\n      dup1\n        /* \"contracts/PriceConverter.sol\":777:798  return ethAmountInUsd */\n      swap3\n      pop\n      pop\n      pop\n        /* \"contracts/PriceConverter.sol\":583:806  function getConversionRate(uint256 ethAmount) internal view returns (uint256) {... */\n      swap2\n      swap1\n      pop\n      jump\t// out\n        /* \"contracts/PriceConverter.sol\":215:575  function getPrice() internal view returns (uint256) {... */\n    tag_32:\n        /* \"contracts/PriceConverter.sol\":258:265  uint256 */\n      0x00\n        /* \"contracts/PriceConverter.sol\":278:309  AggregatorV3Interface priceFeed */\n      dup1\n        /* \"contracts/PriceConverter.sol\":334:376  0x694AA1769357215DE4FAC081bf1f309aDC325306 */\n      0x694aa1769357215de4fac081bf1f309adc325306\n        /* \"contracts/PriceConverter.sol\":278:377  AggregatorV3Interface priceFeed = AggregatorV3Interface(0x694AA1769357215DE4FAC081bf1f309aDC325306) */\n      swap1\n      pop\n        /* \"contracts/PriceConverter.sol\":409:422  int256 answer */\n      0x00\n        /* \"contracts/PriceConverter.sol\":500:509  priceFeed */\n      dup2\n        /* \"contracts/PriceConverter.sol\":500:525  priceFeed.latestRoundData */\n      0xffffffffffffffffffffffffffffffffffffffff\n      and\n      0xfeaf968c\n        /* \"contracts/PriceConverter.sol\":500:527  priceFeed.latestRoundData() */\n      mload(0x40)\n      dup2\n      0xffffffff\n      and\n      0xe0\n      shl\n      dup2\n      mstore\n      0x04\n      add\n      0xa0\n      mload(0x40)\n      dup1\n      dup4\n      sub\n      dup2\n      dup7\n      gas\n      staticcall\n      iszero\n      dup1\n      iszero\n      tag_39\n      jumpi\n      returndatasize\n      0x00\n      dup1\n      returndatacopy\n      revert(0x00, returndatasize)\n    tag_39:\n      pop\n      pop\n      pop\n      pop\n      mload(0x40)\n      returndatasize\n      not(0x1f)\n      0x1f\n      dup3\n      add\n      and\n      dup3\n      add\n      dup1\n      0x40\n      mstore\n      pop\n      dup2\n      add\n      swap1\n      tag_40\n      swap2\n      swap1\n      tag_41\n      jump\t// in\n    tag_40:\n        /* \"contracts/PriceConverter.sol\":388:527  (/*uint80 roundId*/, int256 answer, /*uint256 startedAt*/, /*uint256 updatedAt*/, /*uint80 answeredInRound*/) = priceFeed.latestRoundData() */\n      pop\n      pop\n      pop\n      swap2\n      pop\n      pop\n        /* \"contracts/PriceConverter.sol\":562:566  1e10 */\n      0x02540be400\n        /* \"contracts/PriceConverter.sol\":553:559  answer */\n      dup2\n        /* \"contracts/PriceConverter.sol\":553:566  answer * 1e10 */\n      tag_42\n      swap2\n      swap1\n      tag_43\n      jump\t// in\n    tag_42:\n        /* \"contracts/PriceConverter.sol\":538:567  return uint256(answer * 1e10) */\n      swap3\n      pop\n      pop\n      pop\n        /* \"contracts/PriceConverter.sol\":215:575  function getPrice() internal view returns (uint256) {... */\n      swap1\n      jump\t// out\n        /* \"#utility.yul\":7:84   */\n    tag_44:\n        /* \"#utility.yul\":44:51   */\n      0x00\n        /* \"#utility.yul\":73:78   */\n      dup2\n        /* \"#utility.yul\":62:78   */\n      swap1\n      pop\n        /* \"#utility.yul\":7:84   */\n      swap2\n      swap1\n      pop\n      jump\t// out\n        /* \"#utility.yul\":90:208   */\n    tag_45:\n        /* \"#utility.yul\":177:201   */\n      tag_69\n        /* \"#utility.yul\":195:200   */\n      dup2\n        /* \"#utility.yul\":177:201   */\n      tag_44\n      jump\t// in\n    tag_69:\n        /* \"#utility.yul\":172:175   */\n      dup3\n        /* \"#utility.yul\":165:202   */\n      mstore\n        /* \"#utility.yul\":90:208   */\n      pop\n      pop\n      jump\t// out\n        /* \"#utility.yul\":214:436   */\n    tag_9:\n        /* \"#utility.yul\":307:311   */\n      0x00\n        /* \"#utility.yul\":345:347   */\n      0x20\n        /* \"#utility.yul\":334:343   */\n      dup3\n        /* \"#utility.yul\":330:348   */\n      add\n        /* \"#utility.yul\":322:348   */\n      swap1\n      pop\n        /* \"#utility.yul\":358:429   */\n      tag_71\n        /* \"#utility.yul\":426:427   */\n      0x00\n        /* \"#utility.yul\":415:424   */\n      dup4\n        /* \"#utility.yul\":411:428   */\n      add\n        /* \"#utility.yul\":402:408   */\n      dup5\n        /* \"#utility.yul\":358:429   */\n      tag_45\n      jump\t// in\n    tag_71:\n        /* \"#utility.yul\":214:436   */\n      swap3\n      swap2\n      pop\n      pop\n      jump\t// out\n        /* \"#utility.yul\":523:640   */\n    tag_47:\n        /* \"#utility.yul\":632:633   */\n      0x00\n        /* \"#utility.yul\":629:630   */\n      dup1\n        /* \"#utility.yul\":622:634   */\n      revert\n        /* \"#utility.yul\":769:891   */\n    tag_49:\n        /* \"#utility.yul\":842:866   */\n      tag_76\n        /* \"#utility.yul\":860:865   */\n      dup2\n        /* \"#utility.yul\":842:866   */\n      tag_44\n      jump\t// in\n    tag_76:\n        /* \"#utility.yul\":835:840   */\n      dup2\n        /* \"#utility.yul\":832:867   */\n      eq\n        /* \"#utility.yul\":822:885   */\n      tag_77\n      jumpi\n        /* \"#utility.yul\":881:882   */\n      0x00\n        /* \"#utility.yul\":878:879   */\n      dup1\n        /* \"#utility.yul\":871:883   */\n      revert\n        /* \"#utility.yul\":822:885   */\n    tag_77:\n        /* \"#utility.yul\":769:891   */\n      pop\n      jump\t// out\n        /* \"#utility.yul\":897:1036   */\n    tag_50:\n        /* \"#utility.yul\":943:948   */\n      0x00\n        /* \"#utility.yul\":981:987   */\n      dup2\n        /* \"#utility.yul\":968:988   */\n      calldataload\n        /* \"#utility.yul\":959:988   */\n      swap1\n      pop\n        /* \"#utility.yul\":997:1030   */\n      tag_79\n        /* \"#utility.yul\":1024:1029   */\n      dup2\n        /* \"#utility.yul\":997:1030   */\n      tag_49\n      jump\t// in\n    tag_79:\n        /* \"#utility.yul\":897:1036   */\n      swap3\n      swap2\n      pop\n      pop\n      jump\t// out\n        /* \"#utility.yul\":1042:1371   */\n    tag_15:\n        /* \"#utility.yul\":1101:1107   */\n      0x00\n        /* \"#utility.yul\":1150:1152   */\n      0x20\n        /* \"#utility.yul\":1138:1147   */\n      dup3\n        /* \"#utility.yul\":1129:1136   */\n      dup5\n        /* \"#utility.yul\":1125:1148   */\n      sub\n        /* \"#utility.yul\":1121:1153   */\n      slt\n        /* \"#utility.yul\":1118:1237   */\n      iszero\n      tag_81\n      jumpi\n        /* \"#utility.yul\":1156:1235   */\n      tag_82\n      tag_47\n      jump\t// in\n    tag_82:\n        /* \"#utility.yul\":1118:1237   */\n    tag_81:\n        /* \"#utility.yul\":1276:1277   */\n      0x00\n        /* \"#utility.yul\":1301:1354   */\n      tag_83\n        /* \"#utility.yul\":1346:1353   */\n      dup5\n        /* \"#utility.yul\":1337:1343   */\n      dup3\n        /* \"#utility.yul\":1326:1335   */\n      dup6\n        /* \"#utility.yul\":1322:1344   */\n      add\n        /* \"#utility.yul\":1301:1354   */\n      tag_50\n      jump\t// in\n    tag_83:\n        /* \"#utility.yul\":1291:1354   */\n      swap2\n      pop\n        /* \"#utility.yul\":1247:1364   */\n      pop\n        /* \"#utility.yul\":1042:1371   */\n      swap3\n      swap2\n      pop\n      pop\n      jump\t// out\n        /* \"#utility.yul\":1377:1503   */\n    tag_51:\n        /* \"#utility.yul\":1414:1421   */\n      0x00\n        /* \"#utility.yul\":1454:1496   */\n      0xffffffffffffffffffffffffffffffffffffffff\n        /* \"#utility.yul\":1447:1452   */\n      dup3\n        /* \"#utility.yul\":1443:1497   */\n      and\n        /* \"#utility.yul\":1432:1497   */\n      swap1\n      pop\n        /* \"#utility.yul\":1377:1503   */\n      swap2\n      swap1\n      pop\n      jump\t// out\n        /* \"#utility.yul\":1509:1605   */\n    tag_52:\n        /* \"#utility.yul\":1546:1553   */\n      0x00\n        /* \"#utility.yul\":1575:1599   */\n      tag_86\n        /* \"#utility.yul\":1593:1598   */\n      dup3\n        /* \"#utility.yul\":1575:1599   */\n      tag_51\n      jump\t// in\n    tag_86:\n        /* \"#utility.yul\":1564:1599   */\n      swap1\n      pop\n        /* \"#utility.yul\":1509:1605   */\n      swap2\n      swap1\n      pop\n      jump\t// out\n        /* \"#utility.yul\":1611:1729   */\n    tag_53:\n        /* \"#utility.yul\":1698:1722   */\n      tag_88\n        /* \"#utility.yul\":1716:1721   */\n      dup2\n        /* \"#utility.yul\":1698:1722   */\n      tag_52\n      jump\t// in\n    tag_88:\n        /* \"#utility.yul\":1693:1696   */\n      dup3\n        /* \"#utility.yul\":1686:1723   */\n      mstore\n        /* \"#utility.yul\":1611:1729   */\n      pop\n      pop\n      jump\t// out\n        /* \"#utility.yul\":1735:1957   */\n    tag_18:\n        /* \"#utility.yul\":1828:1832   */\n      0x00\n        /* \"#utility.yul\":1866:1868   */\n      0x20\n        /* \"#utility.yul\":1855:1864   */\n      dup3\n        /* \"#utility.yul\":1851:1869   */\n      add\n        /* \"#utility.yul\":1843:1869   */\n      swap1\n      pop\n        /* \"#utility.yul\":1879:1950   */\n      tag_90\n        /* \"#utility.yul\":1947:1948   */\n      0x00\n        /* \"#utility.yul\":1936:1945   */\n      dup4\n        /* \"#utility.yul\":1932:1949   */\n      add\n        /* \"#utility.yul\":1923:1929   */\n      dup5\n        /* \"#utility.yul\":1879:1950   */\n      tag_53\n      jump\t// in\n    tag_90:\n        /* \"#utility.yul\":1735:1957   */\n      swap3\n      swap2\n      pop\n      pop\n      jump\t// out\n        /* \"#utility.yul\":1963:2132   */\n    tag_54:\n        /* \"#utility.yul\":2047:2058   */\n      0x00\n        /* \"#utility.yul\":2081:2087   */\n      dup3\n        /* \"#utility.yul\":2076:2079   */\n      dup3\n        /* \"#utility.yul\":2069:2088   */\n      mstore\n        /* \"#utility.yul\":2121:2125   */\n      0x20\n        /* \"#utility.yul\":2116:2119   */\n      dup3\n        /* \"#utility.yul\":2112:2126   */\n      add\n        /* \"#utility.yul\":2097:2126   */\n      swap1\n      pop\n        /* \"#utility.yul\":1963:2132   */\n      swap3\n      swap2\n      pop\n      pop\n      jump\t// out\n        /* \"#utility.yul\":2138:2310   */\n    tag_55:\n        /* \"#utility.yul\":2278:2302   */\n      0x6469646e27742073656e6420656e6f7567682045544800000000000000000000\n        /* \"#utility.yul\":2274:2275   */\n      0x00\n        /* \"#utility.yul\":2266:2272   */\n      dup3\n        /* \"#utility.yul\":2262:2276   */\n      add\n        /* \"#utility.yul\":2255:2303   */\n      mstore\n        /* \"#utility.yul\":2138:2310   */\n      pop\n      jump\t// out\n        /* \"#utility.yul\":2316:2682   */\n    tag_56:\n        /* \"#utility.yul\":2458:2461   */\n      0x00\n        /* \"#utility.yul\":2479:2546   */\n      tag_94\n        /* \"#utility.yul\":2543:2545   */\n      0x16\n        /* \"#utility.yul\":2538:2541   */\n      dup4\n        /* \"#utility.yul\":2479:2546   */\n      tag_54\n      jump\t// in\n    tag_94:\n        /* \"#utility.yul\":2472:2546   */\n      swap2\n      pop\n        /* \"#utility.yul\":2555:2648   */\n      tag_95\n        /* \"#utility.yul\":2644:2647   */\n      dup3\n        /* \"#utility.yul\":2555:2648   */\n      tag_55\n      jump\t// in\n    tag_95:\n        /* \"#utility.yul\":2673:2675   */\n      0x20\n        /* \"#utility.yul\":2668:2671   */\n      dup3\n        /* \"#utility.yul\":2664:2676   */\n      add\n        /* \"#utility.yul\":2657:2676   */\n      swap1\n      pop\n        /* \"#utility.yul\":2316:2682   */\n      swap2\n      swap1\n      pop\n      jump\t// out\n        /* \"#utility.yul\":2688:3107   */\n    tag_24:\n        /* \"#utility.yul\":2854:2858   */\n      0x00\n        /* \"#utility.yul\":2892:2894   */\n      0x20\n        /* \"#utility.yul\":2881:2890   */\n      dup3\n        /* \"#utility.yul\":2877:2895   */\n      add\n        /* \"#utility.yul\":2869:2895   */\n      swap1\n      pop\n        /* \"#utility.yul\":2941:2950   */\n      dup2\n        /* \"#utility.yul\":2935:2939   */\n      dup2\n        /* \"#utility.yul\":2931:2951   */\n      sub\n        /* \"#utility.yul\":2927:2928   */\n      0x00\n        /* \"#utility.yul\":2916:2925   */\n      dup4\n        /* \"#utility.yul\":2912:2929   */\n      add\n        /* \"#utility.yul\":2905:2952   */\n      mstore\n        /* \"#utility.yul\":2969:3100   */\n      tag_97\n        /* \"#utility.yul\":3095:3099   */\n      dup2\n        /* \"#utility.yul\":2969:3100   */\n      tag_56\n      jump\t// in\n    tag_97:\n        /* \"#utility.yul\":2961:3100   */\n      swap1\n      pop\n        /* \"#utility.yul\":2688:3107   */\n      swap2\n      swap1\n      pop\n      jump\t// out\n        /* \"#utility.yul\":3113:3293   */\n    tag_57:\n        /* \"#utility.yul\":3161:3238   */\n      0x4e487b7100000000000000000000000000000000000000000000000000000000\n        /* \"#utility.yul\":3158:3159   */\n      0x00\n        /* \"#utility.yul\":3151:3239   */\n      mstore\n        /* \"#utility.yul\":3258:3262   */\n      0x11\n        /* \"#utility.yul\":3255:3256   */\n      0x04\n        /* \"#utility.yul\":3248:3263   */\n      mstore\n        /* \"#utility.yul\":3282:3286   */\n      0x24\n        /* \"#utility.yul\":3279:3280   */\n      0x00\n        /* \"#utility.yul\":3272:3287   */\n      revert\n        /* \"#utility.yul\":3299:3490   */\n    tag_27:\n        /* \"#utility.yul\":3339:3342   */\n      0x00\n        /* \"#utility.yul\":3358:3378   */\n      tag_100\n        /* \"#utility.yul\":3376:3377   */\n      dup3\n        /* \"#utility.yul\":3358:3378   */\n      tag_44\n      jump\t// in\n    tag_100:\n        /* \"#utility.yul\":3353:3378   */\n      swap2\n      pop\n        /* \"#utility.yul\":3392:3412   */\n      tag_101\n        /* \"#utility.yul\":3410:3411   */\n      dup4\n        /* \"#utility.yul\":3392:3412   */\n      tag_44\n      jump\t// in\n    tag_101:\n        /* \"#utility.yul\":3387:3412   */\n      swap3\n      pop\n        /* \"#utility.yul\":3435:3436   */\n      dup3\n        /* \"#utility.yul\":3432:3433   */\n      dup3\n        /* \"#utility.yul\":3428:3437   */\n      add\n        /* \"#utility.yul\":3421:3437   */\n      swap1\n      pop\n        /* \"#utility.yul\":3456:3459   */\n      dup1\n        /* \"#utility.yul\":3453:3454   */\n      dup3\n        /* \"#utility.yul\":3450:3460   */\n      gt\n        /* \"#utility.yul\":3447:3483   */\n      iszero\n      tag_102\n      jumpi\n        /* \"#utility.yul\":3463:3481   */\n      tag_103\n      tag_57\n      jump\t// in\n    tag_103:\n        /* \"#utility.yul\":3447:3483   */\n    tag_102:\n        /* \"#utility.yul\":3299:3490   */\n      swap3\n      swap2\n      pop\n      pop\n      jump\t// out\n        /* \"#utility.yul\":3496:3906   */\n    tag_34:\n        /* \"#utility.yul\":3536:3543   */\n      0x00\n        /* \"#utility.yul\":3559:3579   */\n      tag_105\n        /* \"#utility.yul\":3577:3578   */\n      dup3\n        /* \"#utility.yul\":3559:3579   */\n      tag_44\n      jump\t// in\n    tag_105:\n        /* \"#utility.yul\":3554:3579   */\n      swap2\n      pop\n        /* \"#utility.yul\":3593:3613   */\n      tag_106\n        /* \"#utility.yul\":3611:3612   */\n      dup4\n        /* \"#utility.yul\":3593:3613   */\n      tag_44\n      jump\t// in\n    tag_106:\n        /* \"#utility.yul\":3588:3613   */\n      swap3\n      pop\n        /* \"#utility.yul\":3648:3649   */\n      dup3\n        /* \"#utility.yul\":3645:3646   */\n      dup3\n        /* \"#utility.yul\":3641:3650   */\n      mul\n        /* \"#utility.yul\":3670:3700   */\n      tag_107\n        /* \"#utility.yul\":3688:3699   */\n      dup2\n        /* \"#utility.yul\":3670:3700   */\n      tag_44\n      jump\t// in\n    tag_107:\n        /* \"#utility.yul\":3659:3700   */\n      swap2\n      pop\n        /* \"#utility.yul\":3849:3850   */\n      dup3\n        /* \"#utility.yul\":3840:3847   */\n      dup3\n        /* \"#utility.yul\":3836:3851   */\n      div\n        /* \"#utility.yul\":3833:3834   */\n      dup5\n        /* \"#utility.yul\":3830:3852   */\n      eq\n        /* \"#utility.yul\":3810:3811   */\n      dup4\n        /* \"#utility.yul\":3803:3812   */\n      iszero\n        /* \"#utility.yul\":3783:3866   */\n      or\n        /* \"#utility.yul\":3760:3899   */\n      tag_108\n      jumpi\n        /* \"#utility.yul\":3879:3897   */\n      tag_109\n      tag_57\n      jump\t// in\n    tag_109:\n        /* \"#utility.yul\":3760:3899   */\n    tag_108:\n        /* \"#utility.yul\":3544:3906   */\n      pop\n        /* \"#utility.yul\":3496:3906   */\n      swap3\n      swap2\n      pop\n      pop\n      jump\t// out\n        /* \"#utility.yul\":3912:4092   */\n    tag_58:\n        /* \"#utility.yul\":3960:4037   */\n      0x4e487b7100000000000000000000000000000000000000000000000000000000\n        /* \"#utility.yul\":3957:3958   */\n      0x00\n        /* \"#utility.yul\":3950:4038   */\n      mstore\n        /* \"#utility.yul\":4057:4061   */\n      0x12\n        /* \"#utility.yul\":4054:4055   */\n      0x04\n        /* \"#utility.yul\":4047:4062   */\n      mstore\n        /* \"#utility.yul\":4081:4085   */\n      0x24\n        /* \"#utility.yul\":4078:4079   */\n      0x00\n        /* \"#utility.yul\":4071:4086   */\n      revert\n        /* \"#utility.yul\":4098:4283   */\n    tag_36:\n        /* \"#utility.yul\":4138:4139   */\n      0x00\n        /* \"#utility.yul\":4155:4175   */\n      tag_112\n        /* \"#utility.yul\":4173:4174   */\n      dup3\n        /* \"#utility.yul\":4155:4175   */\n      tag_44\n      jump\t// in\n    tag_112:\n        /* \"#utility.yul\":4150:4175   */\n      swap2\n      pop\n        /* \"#utility.yul\":4189:4209   */\n      tag_113\n        /* \"#utility.yul\":4207:4208   */\n      dup4\n        /* \"#utility.yul\":4189:4209   */\n      tag_44\n      jump\t// in\n    tag_113:\n        /* \"#utility.yul\":4184:4209   */\n      swap3\n      pop\n        /* \"#utility.yul\":4228:4229   */\n      dup3\n        /* \"#utility.yul\":4218:4253   */\n      tag_114\n      jumpi\n        /* \"#utility.yul\":4233:4251   */\n      tag_115\n      tag_58\n      jump\t// in\n    tag_115:\n        /* \"#utility.yul\":4218:4253   */\n    tag_114:\n        /* \"#utility.yul\":4275:4276   */\n      dup3\n        /* \"#utility.yul\":4272:4273   */\n      dup3\n        /* \"#utility.yul\":4268:4277   */\n      div\n        /* \"#utility.yul\":4263:4277   */\n      swap1\n      pop\n        /* \"#utility.yul\":4098:4283   */\n      swap3\n      swap2\n      pop\n      pop\n      jump\t// out\n        /* \"#utility.yul\":4289:4394   */\n    tag_59:\n        /* \"#utility.yul\":4325:4332   */\n      0x00\n        /* \"#utility.yul\":4365:4387   */\n      0xffffffffffffffffffff\n        /* \"#utility.yul\":4358:4363   */\n      dup3\n        /* \"#utility.yul\":4354:4388   */\n      and\n        /* \"#utility.yul\":4343:4388   */\n      swap1\n      pop\n        /* \"#utility.yul\":4289:4394   */\n      swap2\n      swap1\n      pop\n      jump\t// out\n        /* \"#utility.yul\":4400:4520   */\n    tag_60:\n        /* \"#utility.yul\":4472:4495   */\n      tag_118\n        /* \"#utility.yul\":4489:4494   */\n      dup2\n        /* \"#utility.yul\":4472:4495   */\n      tag_59\n      jump\t// in\n    tag_118:\n        /* \"#utility.yul\":4465:4470   */\n      dup2\n        /* \"#utility.yul\":4462:4496   */\n      eq\n        /* \"#utility.yul\":4452:4514   */\n      tag_119\n      jumpi\n        /* \"#utility.yul\":4510:4511   */\n      0x00\n        /* \"#utility.yul\":4507:4508   */\n      dup1\n        /* \"#utility.yul\":4500:4512   */\n      revert\n        /* \"#utility.yul\":4452:4514   */\n    tag_119:\n        /* \"#utility.yul\":4400:4520   */\n      pop\n      jump\t// out\n        /* \"#utility.yul\":4526:4667   */\n    tag_61:\n        /* \"#utility.yul\":4582:4587   */\n      0x00\n        /* \"#utility.yul\":4613:4619   */\n      dup2\n        /* \"#utility.yul\":4607:4620   */\n      mload\n        /* \"#utility.yul\":4598:4620   */\n      swap1\n      pop\n        /* \"#utility.yul\":4629:4661   */\n      tag_121\n        /* \"#utility.yul\":4655:4660   */\n      dup2\n        /* \"#utility.yul\":4629:4661   */\n      tag_60\n      jump\t// in\n    tag_121:\n        /* \"#utility.yul\":4526:4667   */\n      swap3\n      swap2\n      pop\n      pop\n      jump\t// out\n        /* \"#utility.yul\":4673:4749   */\n    tag_62:\n        /* \"#utility.yul\":4709:4716   */\n      0x00\n        /* \"#utility.yul\":4738:4743   */\n      dup2\n        /* \"#utility.yul\":4727:4743   */\n      swap1\n      pop\n        /* \"#utility.yul\":4673:4749   */\n      swap2\n      swap1\n      pop\n      jump\t// out\n        /* \"#utility.yul\":4755:4875   */\n    tag_63:\n        /* \"#utility.yul\":4827:4850   */\n      tag_124\n        /* \"#utility.yul\":4844:4849   */\n      dup2\n        /* \"#utility.yul\":4827:4850   */\n      tag_62\n      jump\t// in\n    tag_124:\n        /* \"#utility.yul\":4820:4825   */\n      dup2\n        /* \"#utility.yul\":4817:4851   */\n      eq\n        /* \"#utility.yul\":4807:4869   */\n      tag_125\n      jumpi\n        /* \"#utility.yul\":4865:4866   */\n      0x00\n        /* \"#utility.yul\":4862:4863   */\n      dup1\n        /* \"#utility.yul\":4855:4867   */\n      revert\n        /* \"#utility.yul\":4807:4869   */\n    tag_125:\n        /* \"#utility.yul\":4755:4875   */\n      pop\n      jump\t// out\n        /* \"#utility.yul\":4881:5022   */\n    tag_64:\n        /* \"#utility.yul\":4937:4942   */\n      0x00\n        /* \"#utility.yul\":4968:4974   */\n      dup2\n        /* \"#utility.yul\":4962:4975   */\n      mload\n        /* \"#utility.yul\":4953:4975   */\n      swap1\n      pop\n        /* \"#utility.yul\":4984:5016   */\n      tag_127\n        /* \"#utility.yul\":5010:5015   */\n      dup2\n        /* \"#utility.yul\":4984:5016   */\n      tag_63\n      jump\t// in\n    tag_127:\n        /* \"#utility.yul\":4881:5022   */\n      swap3\n      swap2\n      pop\n      pop\n      jump\t// out\n        /* \"#utility.yul\":5028:5171   */\n    tag_65:\n        /* \"#utility.yul\":5085:5090   */\n      0x00\n        /* \"#utility.yul\":5116:5122   */\n      dup2\n        /* \"#utility.yul\":5110:5123   */\n      mload\n        /* \"#utility.yul\":5101:5123   */\n      swap1\n      pop\n        /* \"#utility.yul\":5132:5165   */\n      tag_129\n        /* \"#utility.yul\":5159:5164   */\n      dup2\n        /* \"#utility.yul\":5132:5165   */\n      tag_49\n      jump\t// in\n    tag_129:\n        /* \"#utility.yul\":5028:5171   */\n      swap3\n      swap2\n      pop\n      pop\n      jump\t// out\n        /* \"#utility.yul\":5177:6148   */\n    tag_41:\n        /* \"#utility.yul\":5280:5286   */\n      0x00\n        /* \"#utility.yul\":5288:5294   */\n      dup1\n        /* \"#utility.yul\":5296:5302   */\n      0x00\n        /* \"#utility.yul\":5304:5310   */\n      dup1\n        /* \"#utility.yul\":5312:5318   */\n      0x00\n        /* \"#utility.yul\":5361:5364   */\n      0xa0\n        /* \"#utility.yul\":5349:5358   */\n      dup7\n        /* \"#utility.yul\":5340:5347   */\n      dup9\n        /* \"#utility.yul\":5336:5359   */\n      sub\n        /* \"#utility.yul\":5332:5365   */\n      slt\n        /* \"#utility.yul\":5329:5449   */\n      iszero\n      tag_131\n      jumpi\n        /* \"#utility.yul\":5368:5447   */\n      tag_132\n      tag_47\n      jump\t// in\n    tag_132:\n        /* \"#utility.yul\":5329:5449   */\n    tag_131:\n        /* \"#utility.yul\":5488:5489   */\n      0x00\n        /* \"#utility.yul\":5513:5576   */\n      tag_133\n        /* \"#utility.yul\":5568:5575   */\n      dup9\n        /* \"#utility.yul\":5559:5565   */\n      dup3\n        /* \"#utility.yul\":5548:5557   */\n      dup10\n        /* \"#utility.yul\":5544:5566   */\n      add\n        /* \"#utility.yul\":5513:5576   */\n      tag_61\n      jump\t// in\n    tag_133:\n        /* \"#utility.yul\":5503:5576   */\n      swap6\n      pop\n        /* \"#utility.yul\":5459:5586   */\n      pop\n        /* \"#utility.yul\":5625:5627   */\n      0x20\n        /* \"#utility.yul\":5651:5714   */\n      tag_134\n        /* \"#utility.yul\":5706:5713   */\n      dup9\n        /* \"#utility.yul\":5697:5703   */\n      dup3\n        /* \"#utility.yul\":5686:5695   */\n      dup10\n        /* \"#utility.yul\":5682:5704   */\n      add\n        /* \"#utility.yul\":5651:5714   */\n      tag_64\n      jump\t// in\n    tag_134:\n        /* \"#utility.yul\":5641:5714   */\n      swap5\n      pop\n        /* \"#utility.yul\":5596:5724   */\n      pop\n        /* \"#utility.yul\":5763:5765   */\n      0x40\n        /* \"#utility.yul\":5789:5853   */\n      tag_135\n        /* \"#utility.yul\":5845:5852   */\n      dup9\n        /* \"#utility.yul\":5836:5842   */\n      dup3\n        /* \"#utility.yul\":5825:5834   */\n      dup10\n        /* \"#utility.yul\":5821:5843   */\n      add\n        /* \"#utility.yul\":5789:5853   */\n      tag_65\n      jump\t// in\n    tag_135:\n        /* \"#utility.yul\":5779:5853   */\n      swap4\n      pop\n        /* \"#utility.yul\":5734:5863   */\n      pop\n        /* \"#utility.yul\":5902:5904   */\n      0x60\n        /* \"#utility.yul\":5928:5992   */\n      tag_136\n        /* \"#utility.yul\":5984:5991   */\n      dup9\n        /* \"#utility.yul\":5975:5981   */\n      dup3\n        /* \"#utility.yul\":5964:5973   */\n      dup10\n        /* \"#utility.yul\":5960:5982   */\n      add\n        /* \"#utility.yul\":5928:5992   */\n      tag_65\n      jump\t// in\n    tag_136:\n        /* \"#utility.yul\":5918:5992   */\n      swap3\n      pop\n        /* \"#utility.yul\":5873:6002   */\n      pop\n        /* \"#utility.yul\":6041:6044   */\n      0x80\n        /* \"#utility.yul\":6068:6131   */\n      tag_137\n        /* \"#utility.yul\":6123:6130   */\n      dup9\n        /* \"#utility.yul\":6114:6120   */\n      dup3\n        /* \"#utility.yul\":6103:6112   */\n      dup10\n        /* \"#utility.yul\":6099:6121   */\n      add\n        /* \"#utility.yul\":6068:6131   */\n      tag_61\n      jump\t// in\n    tag_137:\n        /* \"#utility.yul\":6058:6131   */\n      swap2\n      pop\n        /* \"#utility.yul\":6012:6141   */\n      pop\n        /* \"#utility.yul\":5177:6148   */\n      swap3\n      swap6\n      pop\n      swap3\n      swap6\n      swap1\n      swap4\n      pop\n      jump\t// out\n        /* \"#utility.yul\":6154:6710   */\n    tag_43:\n        /* \"#utility.yul\":6193:6200   */\n      0x00\n        /* \"#utility.yul\":6216:6235   */\n      tag_139\n        /* \"#utility.yul\":6233:6234   */\n      dup3\n        /* \"#utility.yul\":6216:6235   */\n      tag_62\n      jump\t// in\n    tag_139:\n        /* \"#utility.yul\":6211:6235   */\n      swap2\n      pop\n        /* \"#utility.yul\":6249:6268   */\n      tag_140\n        /* \"#utility.yul\":6266:6267   */\n      dup4\n        /* \"#utility.yul\":6249:6268   */\n      tag_62\n      jump\t// in\n    tag_140:\n        /* \"#utility.yul\":6244:6268   */\n      swap3\n      pop\n        /* \"#utility.yul\":6303:6304   */\n      dup3\n        /* \"#utility.yul\":6300:6301   */\n      dup3\n        /* \"#utility.yul\":6296:6305   */\n      mul\n        /* \"#utility.yul\":6325:6354   */\n      tag_141\n        /* \"#utility.yul\":6342:6353   */\n      dup2\n        /* \"#utility.yul\":6325:6354   */\n      tag_62\n      jump\t// in\n    tag_141:\n        /* \"#utility.yul\":6314:6354   */\n      swap2\n      pop\n        /* \"#utility.yul\":6412:6478   */\n      0x8000000000000000000000000000000000000000000000000000000000000000\n        /* \"#utility.yul\":6409:6410   */\n      dup5\n        /* \"#utility.yul\":6406:6479   */\n      eq\n        /* \"#utility.yul\":6402:6403   */\n      0x00\n        /* \"#utility.yul\":6399:6400   */\n      dup5\n        /* \"#utility.yul\":6395:6404   */\n      slt\n        /* \"#utility.yul\":6391:6480   */\n      and\n        /* \"#utility.yul\":6388:6503   */\n      iszero\n      tag_142\n      jumpi\n        /* \"#utility.yul\":6483:6501   */\n      tag_143\n      tag_57\n      jump\t// in\n    tag_143:\n        /* \"#utility.yul\":6388:6503   */\n    tag_142:\n        /* \"#utility.yul\":6653:6654   */\n      dup3\n        /* \"#utility.yul\":6644:6651   */\n      dup3\n        /* \"#utility.yul\":6639:6655   */\n      sdiv\n        /* \"#utility.yul\":6636:6637   */\n      dup5\n        /* \"#utility.yul\":6633:6656   */\n      eq\n        /* \"#utility.yul\":6613:6614   */\n      dup4\n        /* \"#utility.yul\":6606:6615   */\n      iszero\n        /* \"#utility.yul\":6586:6670   */\n      or\n        /* \"#utility.yul\":6563:6703   */\n      tag_144\n      jumpi\n        /* \"#utility.yul\":6683:6701   */\n      tag_145\n      tag_57\n      jump\t// in\n    tag_145:\n        /* \"#utility.yul\":6563:6703   */\n    tag_144:\n        /* \"#utility.yul\":6201:6710   */\n      pop\n        /* \"#utility.yul\":6154:6710   */\n      swap3\n      swap2\n      pop\n      pop\n      jump\t// out\n\n    auxdata: 0xa2646970667358221220cb12d32b0682f0fa9ac65d54b1e7dc5a170f8be26821d74c56f97ddc4b80464964736f6c634300081a0033\n}\n",
				"bytecode": {
					"linkReferences": {},
					"object": "6080604052674563918244f400005f553480156019575f80fd5b506106fd806100275f395ff3fe608060405260043610610033575f3560e01c8063098de82014610037578063b60d428814610061578063dc0d3dff1461006b575b5f80fd5b348015610042575f80fd5b5061004b6100a7565b6040516100589190610314565b60405180910390f35b6100696100ac565b005b348015610076575f80fd5b50610091600480360381019061008c919061035b565b6101e4565b60405161009e91906103c5565b60405180910390f35b5f5481565b5f546100b73461021f565b10156100f8576040517f08c379a00000000000000000000000000000000000000000000000000000000081526004016100ef90610438565b60405180910390fd5b600133908060018154018082558091505060019003905f5260205f20015f9091909190916101000a81548173ffffffffffffffffffffffffffffffffffffffff021916908373ffffffffffffffffffffffffffffffffffffffff1602179055503460025f3373ffffffffffffffffffffffffffffffffffffffff1673ffffffffffffffffffffffffffffffffffffffff1681526020019081526020015f20546101a19190610483565b60025f3373ffffffffffffffffffffffffffffffffffffffff1673ffffffffffffffffffffffffffffffffffffffff1681526020019081526020015f2081905550565b600181815481106101f3575f80fd5b905f5260205f20015f915054906101000a900473ffffffffffffffffffffffffffffffffffffffff1681565b5f80610229610257565b90505f670de0b6b3a7640000848361024191906104b6565b61024b9190610524565b90508092505050919050565b5f8073694aa1769357215de4fac081bf1f309adc32530690505f8173ffffffffffffffffffffffffffffffffffffffff1663feaf968c6040518163ffffffff1660e01b815260040160a060405180830381865afa1580156102ba573d5f803e3d5ffd5b505050506040513d601f19601f820116820180604052508101906102de91906105da565b5050509150506402540be400816102f59190610651565b9250505090565b5f819050919050565b61030e816102fc565b82525050565b5f6020820190506103275f830184610305565b92915050565b5f80fd5b61033a816102fc565b8114610344575f80fd5b50565b5f8135905061035581610331565b92915050565b5f602082840312156103705761036f61032d565b5b5f61037d84828501610347565b91505092915050565b5f73ffffffffffffffffffffffffffffffffffffffff82169050919050565b5f6103af82610386565b9050919050565b6103bf816103a5565b82525050565b5f6020820190506103d85f8301846103b6565b92915050565b5f82825260208201905092915050565b7f6469646e27742073656e6420656e6f75676820455448000000000000000000005f82015250565b5f6104226016836103de565b915061042d826103ee565b602082019050919050565b5f6020820190508181035f83015261044f81610416565b9050919050565b7f4e487b71000000000000000000000000000000000000000000000000000000005f52601160045260245ffd5b5f61048d826102fc565b9150610498836102fc565b92508282019050808211156104b0576104af610456565b5b92915050565b5f6104c0826102fc565b91506104cb836102fc565b92508282026104d9816102fc565b915082820484148315176104f0576104ef610456565b5b5092915050565b7f4e487b71000000000000000000000000000000000000000000000000000000005f52601260045260245ffd5b5f61052e826102fc565b9150610539836102fc565b925082610549576105486104f7565b5b828204905092915050565b5f69ffffffffffffffffffff82169050919050565b61057281610554565b811461057c575f80fd5b50565b5f8151905061058d81610569565b92915050565b5f819050919050565b6105a581610593565b81146105af575f80fd5b50565b5f815190506105c08161059c565b92915050565b5f815190506105d481610331565b92915050565b5f805f805f60a086880312156105f3576105f261032d565b5b5f6106008882890161057f565b9550506020610611888289016105b2565b9450506040610622888289016105c6565b9350506060610633888289016105c6565b92505060806106448882890161057f565b9150509295509295909350565b5f61065b82610593565b915061066683610593565b925082820261067481610593565b91507f800000000000000000000000000000000000000000000000000000000000000084145f841216156106ab576106aa610456565b5b82820584148315176106c0576106bf610456565b5b509291505056fea2646970667358221220cb12d32b0682f0fa9ac65d54b1e7dc5a170f8be26821d74c56f97ddc4b80464964736f6c634300081a0033",
					"opcodes": "PUSH1 0x80 PUSH1 0x40 MSTORE PUSH8 0x4563918244F40000 PUSH0 SSTORE CALLVALUE DUP1 ISZERO PUSH1 0x19 JUMPI PUSH0 DUP1 REVERT JUMPDEST POP PUSH2 0x6FD DUP1 PUSH2 0x27 PUSH0 CODECOPY PUSH0 RETURN INVALID PUSH1 0x80 PUSH1 0x40 MSTORE PUSH1 0x4 CALLDATASIZE LT PUSH2 0x33 JUMPI PUSH0 CALLDATALOAD PUSH1 0xE0 SHR DUP1 PUSH4 0x98DE820 EQ PUSH2 0x37 JUMPI DUP1 PUSH4 0xB60D4288 EQ PUSH2 0x61 JUMPI DUP1 PUSH4 0xDC0D3DFF EQ PUSH2 0x6B JUMPI JUMPDEST PUSH0 DUP1 REVERT JUMPDEST CALLVALUE DUP1 ISZERO PUSH2 0x42 JUMPI PUSH0 DUP1 REVERT JUMPDEST POP PUSH2 0x4B PUSH2 0xA7 JUMP JUMPDEST PUSH1 0x40 MLOAD PUSH2 0x58 SWAP2 SWAP1 PUSH2 0x314 JUMP JUMPDEST PUSH1 0x40 MLOAD DUP1 SWAP2 SUB SWAP1 RETURN JUMPDEST PUSH2 0x69 PUSH2 0xAC JUMP JUMPDEST STOP JUMPDEST CALLVALUE DUP1 ISZERO PUSH2 0x76 JUMPI PUSH0 DUP1 REVERT JUMPDEST POP PUSH2 0x91 PUSH1 0x4 DUP1 CALLDATASIZE SUB DUP2 ADD SWAP1 PUSH2 0x8C SWAP2 SWAP1 PUSH2 0x35B JUMP JUMPDEST PUSH2 0x1E4 JUMP JUMPDEST PUSH1 0x40 MLOAD PUSH2 0x9E SWAP2 SWAP1 PUSH2 0x3C5 JUMP JUMPDEST PUSH1 0x40 MLOAD DUP1 SWAP2 SUB SWAP1 RETURN JUMPDEST PUSH0 SLOAD DUP2 JUMP JUMPDEST PUSH0 SLOAD PUSH2 0xB7 CALLVALUE PUSH2 0x21F JUMP JUMPDEST LT ISZERO PUSH2 0xF8 JUMPI PUSH1 0x40 MLOAD PUSH32 0x8C379A000000000000000000000000000000000000000000000000000000000 DUP2 MSTORE PUSH1 0x4 ADD PUSH2 0xEF SWAP1 PUSH2 0x438 JUMP JUMPDEST PUSH1 0x40 MLOAD DUP1 SWAP2 SUB SWAP1 REVERT JUMPDEST PUSH1 0x1 CALLER SWAP1 DUP1 PUSH1 0x1 DUP2 SLOAD ADD DUP1 DUP3 SSTORE DUP1 SWAP2 POP POP PUSH1 0x1 SWAP1 SUB SWAP1 PUSH0 MSTORE PUSH1 0x20 PUSH0 KECCAK256 ADD PUSH0 SWAP1 SWAP2 SWAP1 SWAP2 SWAP1 SWAP2 PUSH2 0x100 EXP DUP2 SLOAD DUP2 PUSH20 0xFFFFFFFFFFFFFFFFFFFFFFFFFFFFFFFFFFFFFFFF MUL NOT AND SWAP1 DUP4 PUSH20 0xFFFFFFFFFFFFFFFFFFFFFFFFFFFFFFFFFFFFFFFF AND MUL OR SWAP1 SSTORE POP CALLVALUE PUSH1 0x2 PUSH0 CALLER PUSH20 0xFFFFFFFFFFFFFFFFFFFFFFFFFFFFFFFFFFFFFFFF AND PUSH20 0xFFFFFFFFFFFFFFFFFFFFFFFFFFFFFFFFFFFFFFFF AND DUP2 MSTORE PUSH1 0x20 ADD SWAP1 DUP2 MSTORE PUSH1 0x20 ADD PUSH0 KECCAK256 SLOAD PUSH2 0x1A1 SWAP2 SWAP1 PUSH2 0x483 JUMP JUMPDEST PUSH1 0x2 PUSH0 CALLER PUSH20 0xFFFFFFFFFFFFFFFFFFFFFFFFFFFFFFFFFFFFFFFF AND PUSH20 0xFFFFFFFFFFFFFFFFFFFFFFFFFFFFFFFFFFFFFFFF AND DUP2 MSTORE PUSH1 0x20 ADD SWAP1 DUP2 MSTORE PUSH1 0x20 ADD PUSH0 KECCAK256 DUP2 SWAP1 SSTORE POP JUMP JUMPDEST PUSH1 0x1 DUP2 DUP2 SLOAD DUP2 LT PUSH2 0x1F3 JUMPI PUSH0 DUP1 REVERT JUMPDEST SWAP1 PUSH0 MSTORE PUSH1 0x20 PUSH0 KECCAK256 ADD PUSH0 SWAP2 POP SLOAD SWAP1 PUSH2 0x100 EXP SWAP1 DIV PUSH20 0xFFFFFFFFFFFFFFFFFFFFFFFFFFFFFFFFFFFFFFFF AND DUP2 JUMP JUMPDEST PUSH0 DUP1 PUSH2 0x229 PUSH2 0x257 JUMP JUMPDEST SWAP1 POP PUSH0 PUSH8 0xDE0B6B3A7640000 DUP5 DUP4 PUSH2 0x241 SWAP2 SWAP1 PUSH2 0x4B6 JUMP JUMPDEST PUSH2 0x24B SWAP2 SWAP1 PUSH2 0x524 JUMP JUMPDEST SWAP1 POP DUP1 SWAP3 POP POP POP SWAP2 SWAP1 POP JUMP JUMPDEST PUSH0 DUP1 PUSH20 0x694AA1769357215DE4FAC081BF1F309ADC325306 SWAP1 POP PUSH0 DUP2 PUSH20 0xFFFFFFFFFFFFFFFFFFFFFFFFFFFFFFFFFFFFFFFF AND PUSH4 0xFEAF968C PUSH1 0x40 MLOAD DUP2 PUSH4 0xFFFFFFFF AND PUSH1 0xE0 SHL DUP2 MSTORE PUSH1 0x4 ADD PUSH1 0xA0 PUSH1 0x40 MLOAD DUP1 DUP4 SUB DUP2 DUP7 GAS STATICCALL ISZERO DUP1 ISZERO PUSH2 0x2BA JUMPI RETURNDATASIZE PUSH0 DUP1 RETURNDATACOPY RETURNDATASIZE PUSH0 REVERT JUMPDEST POP POP POP POP PUSH1 0x40 MLOAD RETURNDATASIZE PUSH1 0x1F NOT PUSH1 0x1F DUP3 ADD AND DUP3 ADD DUP1 PUSH1 0x40 MSTORE POP DUP2 ADD SWAP1 PUSH2 0x2DE SWAP2 SWAP1 PUSH2 0x5DA JUMP JUMPDEST POP POP POP SWAP2 POP POP PUSH5 0x2540BE400 DUP2 PUSH2 0x2F5 SWAP2 SWAP1 PUSH2 0x651 JUMP JUMPDEST SWAP3 POP POP POP SWAP1 JUMP JUMPDEST PUSH0 DUP2 SWAP1 POP SWAP2 SWAP1 POP JUMP JUMPDEST PUSH2 0x30E DUP2 PUSH2 0x2FC JUMP JUMPDEST DUP3 MSTORE POP POP JUMP JUMPDEST PUSH0 PUSH1 0x20 DUP3 ADD SWAP1 POP PUSH2 0x327 PUSH0 DUP4 ADD DUP5 PUSH2 0x305 JUMP JUMPDEST SWAP3 SWAP2 POP POP JUMP JUMPDEST PUSH0 DUP1 REVERT JUMPDEST PUSH2 0x33A DUP2 PUSH2 0x2FC JUMP JUMPDEST DUP2 EQ PUSH2 0x344 JUMPI PUSH0 DUP1 REVERT JUMPDEST POP JUMP JUMPDEST PUSH0 DUP2 CALLDATALOAD SWAP1 POP PUSH2 0x355 DUP2 PUSH2 0x331 JUMP JUMPDEST SWAP3 SWAP2 POP POP JUMP JUMPDEST PUSH0 PUSH1 0x20 DUP3 DUP5 SUB SLT ISZERO PUSH2 0x370 JUMPI PUSH2 0x36F PUSH2 0x32D JUMP JUMPDEST JUMPDEST PUSH0 PUSH2 0x37D DUP5 DUP3 DUP6 ADD PUSH2 0x347 JUMP JUMPDEST SWAP2 POP POP SWAP3 SWAP2 POP POP JUMP JUMPDEST PUSH0 PUSH20 0xFFFFFFFFFFFFFFFFFFFFFFFFFFFFFFFFFFFFFFFF DUP3 AND SWAP1 POP SWAP2 SWAP1 POP JUMP JUMPDEST PUSH0 PUSH2 0x3AF DUP3 PUSH2 0x386 JUMP JUMPDEST SWAP1 POP SWAP2 SWAP1 POP JUMP JUMPDEST PUSH2 0x3BF DUP2 PUSH2 0x3A5 JUMP JUMPDEST DUP3 MSTORE POP POP JUMP JUMPDEST PUSH0 PUSH1 0x20 DUP3 ADD SWAP1 POP PUSH2 0x3D8 PUSH0 DUP4 ADD DUP5 PUSH2 0x3B6 JUMP JUMPDEST SWAP3 SWAP2 POP POP JUMP JUMPDEST PUSH0 DUP3 DUP3 MSTORE PUSH1 0x20 DUP3 ADD SWAP1 POP SWAP3 SWAP2 POP POP JUMP JUMPDEST PUSH32 0x6469646E27742073656E6420656E6F7567682045544800000000000000000000 PUSH0 DUP3 ADD MSTORE POP JUMP JUMPDEST PUSH0 PUSH2 0x422 PUSH1 0x16 DUP4 PUSH2 0x3DE JUMP JUMPDEST SWAP2 POP PUSH2 0x42D DUP3 PUSH2 0x3EE JUMP JUMPDEST PUSH1 0x20 DUP3 ADD SWAP1 POP SWAP2 SWAP1 POP JUMP JUMPDEST PUSH0 PUSH1 0x20 DUP3 ADD SWAP1 POP DUP2 DUP2 SUB PUSH0 DUP4 ADD MSTORE PUSH2 0x44F DUP2 PUSH2 0x416 JUMP JUMPDEST SWAP1 POP SWAP2 SWAP1 POP JUMP JUMPDEST PUSH32 0x4E487B7100000000000000000000000000000000000000000000000000000000 PUSH0 MSTORE PUSH1 0x11 PUSH1 0x4 MSTORE PUSH1 0x24 PUSH0 REVERT JUMPDEST PUSH0 PUSH2 0x48D DUP3 PUSH2 0x2FC JUMP JUMPDEST SWAP2 POP PUSH2 0x498 DUP4 PUSH2 0x2FC JUMP JUMPDEST SWAP3 POP DUP3 DUP3 ADD SWAP1 POP DUP1 DUP3 GT ISZERO PUSH2 0x4B0 JUMPI PUSH2 0x4AF PUSH2 0x456 JUMP JUMPDEST JUMPDEST SWAP3 SWAP2 POP POP JUMP JUMPDEST PUSH0 PUSH2 0x4C0 DUP3 PUSH2 0x2FC JUMP JUMPDEST SWAP2 POP PUSH2 0x4CB DUP4 PUSH2 0x2FC JUMP JUMPDEST SWAP3 POP DUP3 DUP3 MUL PUSH2 0x4D9 DUP2 PUSH2 0x2FC JUMP JUMPDEST SWAP2 POP DUP3 DUP3 DIV DUP5 EQ DUP4 ISZERO OR PUSH2 0x4F0 JUMPI PUSH2 0x4EF PUSH2 0x456 JUMP JUMPDEST JUMPDEST POP SWAP3 SWAP2 POP POP JUMP JUMPDEST PUSH32 0x4E487B7100000000000000000000000000000000000000000000000000000000 PUSH0 MSTORE PUSH1 0x12 PUSH1 0x4 MSTORE PUSH1 0x24 PUSH0 REVERT JUMPDEST PUSH0 PUSH2 0x52E DUP3 PUSH2 0x2FC JUMP JUMPDEST SWAP2 POP PUSH2 0x539 DUP4 PUSH2 0x2FC JUMP JUMPDEST SWAP3 POP DUP3 PUSH2 0x549 JUMPI PUSH2 0x548 PUSH2 0x4F7 JUMP JUMPDEST JUMPDEST DUP3 DUP3 DIV SWAP1 POP SWAP3 SWAP2 POP POP JUMP JUMPDEST PUSH0 PUSH10 0xFFFFFFFFFFFFFFFFFFFF DUP3 AND SWAP1 POP SWAP2 SWAP1 POP JUMP JUMPDEST PUSH2 0x572 DUP2 PUSH2 0x554 JUMP JUMPDEST DUP2 EQ PUSH2 0x57C JUMPI PUSH0 DUP1 REVERT JUMPDEST POP JUMP JUMPDEST PUSH0 DUP2 MLOAD SWAP1 POP PUSH2 0x58D DUP2 PUSH2 0x569 JUMP JUMPDEST SWAP3 SWAP2 POP POP JUMP JUMPDEST PUSH0 DUP2 SWAP1 POP SWAP2 SWAP1 POP JUMP JUMPDEST PUSH2 0x5A5 DUP2 PUSH2 0x593 JUMP JUMPDEST DUP2 EQ PUSH2 0x5AF JUMPI PUSH0 DUP1 REVERT JUMPDEST POP JUMP JUMPDEST PUSH0 DUP2 MLOAD SWAP1 POP PUSH2 0x5C0 DUP2 PUSH2 0x59C JUMP JUMPDEST SWAP3 SWAP2 POP POP JUMP JUMPDEST PUSH0 DUP2 MLOAD SWAP1 POP PUSH2 0x5D4 DUP2 PUSH2 0x331 JUMP JUMPDEST SWAP3 SWAP2 POP POP JUMP JUMPDEST PUSH0 DUP1 PUSH0 DUP1 PUSH0 PUSH1 0xA0 DUP7 DUP9 SUB SLT ISZERO PUSH2 0x5F3 JUMPI PUSH2 0x5F2 PUSH2 0x32D JUMP JUMPDEST JUMPDEST PUSH0 PUSH2 0x600 DUP9 DUP3 DUP10 ADD PUSH2 0x57F JUMP JUMPDEST SWAP6 POP POP PUSH1 0x20 PUSH2 0x611 DUP9 DUP3 DUP10 ADD PUSH2 0x5B2 JUMP JUMPDEST SWAP5 POP POP PUSH1 0x40 PUSH2 0x622 DUP9 DUP3 DUP10 ADD PUSH2 0x5C6 JUMP JUMPDEST SWAP4 POP POP PUSH1 0x60 PUSH2 0x633 DUP9 DUP3 DUP10 ADD PUSH2 0x5C6 JUMP JUMPDEST SWAP3 POP POP PUSH1 0x80 PUSH2 0x644 DUP9 DUP3 DUP10 ADD PUSH2 0x57F JUMP JUMPDEST SWAP2 POP POP SWAP3 SWAP6 POP SWAP3 SWAP6 SWAP1 SWAP4 POP JUMP JUMPDEST PUSH0 PUSH2 0x65B DUP3 PUSH2 0x593 JUMP JUMPDEST SWAP2 POP PUSH2 0x666 DUP4 PUSH2 0x593 JUMP JUMPDEST SWAP3 POP DUP3 DUP3 MUL PUSH2 0x674 DUP2 PUSH2 0x593 JUMP JUMPDEST SWAP2 POP PUSH32 0x8000000000000000000000000000000000000000000000000000000000000000 DUP5 EQ PUSH0 DUP5 SLT AND ISZERO PUSH2 0x6AB JUMPI PUSH2 0x6AA PUSH2 0x456 JUMP JUMPDEST JUMPDEST DUP3 DUP3 SDIV DUP5 EQ DUP4 ISZERO OR PUSH2 0x6C0 JUMPI PUSH2 0x6BF PUSH2 0x456 JUMP JUMPDEST JUMPDEST POP SWAP3 SWAP2 POP POP JUMP INVALID LOG2 PUSH5 0x6970667358 0x22 SLT KECCAK256 0xCB SLT 0xD3 0x2B MOD DUP3 CREATE STATICCALL SWAP11 0xC6 TSTORE SLOAD 0xB1 0xE7 0xDC GAS OR 0xF DUP12 0xE2 PUSH9 0x21D74C56F97DDC4B80 CHAINID BLOBHASH PUSH5 0x736F6C6343 STOP ADDMOD BYTE STOP CALLER "
				},
				"gasEstimates": {
					"creation": {
						"codeDepositCost": "357800",
						"executionCost": "22496",
						"totalCost": "380296"
					},
					"external": {
						"fund()": "infinite",
						"funders(uint256)": "4966",
						"minimumUsd()": "2402"
					}
				},
				"methodIdentifiers": {
					"fund()": "b60d4288",
					"funders(uint256)": "dc0d3dff",
					"minimumUsd()": "098de820"
				}
			},
			"storageLayout": {
				"storage": [
					{
						"astId": 57,
						"contract": "contracts/FundMe.sol:FundMe",
						"label": "minimumUsd",
						"offset": 0,
						"slot": "0",
						"type": "t_uint256"
					},
					{
						"astId": 60,
						"contract": "contracts/FundMe.sol:FundMe",
						"label": "funders",
						"offset": 0,
						"slot": "1",
						"type": "t_array(t_address)dyn_storage"
					},
					{
						"astId": 64,
						"contract": "contracts/FundMe.sol:FundMe",
						"label": "addressToAmountFunded",
						"offset": 0,
						"slot": "2",
						"type": "t_mapping(t_address,t_uint256)"
					}
				],
				"types": {
					"t_address": {
						"encoding": "inplace",
						"label": "address",
						"numberOfBytes": "20"
					},
					"t_array(t_address)dyn_storage": {
						"base": "t_address",
						"encoding": "dynamic_array",
						"label": "address[]",
						"numberOfBytes": "32"
					},
					"t_mapping(t_address,t_uint256)": {
						"encoding": "mapping",
						"key": "t_address",
						"label": "mapping(address => uint256)",
						"numberOfBytes": "32",
						"value": "t_uint256"
					},
					"t_uint256": {
						"encoding": "inplace",
						"label": "uint256",
						"numberOfBytes": "32"
					}
				}
			},
			"userdoc": {
				"kind": "user",
				"methods": {},
				"version": 1
			}
		}
	}
}